{
  "_format": "hh-sol-artifact-1",
  "contractName": "NFTMarket",
  "sourceName": "contracts/NFTMarket.sol",
  "abi": [
    {
      "inputs": [],
      "stateMutability": "nonpayable",
      "type": "constructor"
    },
    {
      "anonymous": false,
      "inputs": [
        {
          "indexed": true,
          "internalType": "uint256",
          "name": "itemId",
          "type": "uint256"
        },
        {
          "indexed": true,
          "internalType": "address",
          "name": "nftContract",
          "type": "address"
        },
        {
          "indexed": true,
          "internalType": "uint256",
          "name": "tokenId",
          "type": "uint256"
        },
        {
          "indexed": false,
          "internalType": "address",
          "name": "seller",
          "type": "address"
        },
        {
          "indexed": false,
          "internalType": "address",
          "name": "owner",
          "type": "address"
        },
        {
          "indexed": false,
          "internalType": "uint256",
          "name": "price",
          "type": "uint256"
        }
      ],
      "name": "MarketItemCreated",
      "type": "event"
    },
    {
      "inputs": [
        {
          "internalType": "address",
          "name": "nftContract",
          "type": "address"
        },
        {
          "internalType": "uint256",
          "name": "tokenId",
          "type": "uint256"
        },
        {
          "internalType": "uint256",
          "name": "price",
          "type": "uint256"
        }
      ],
      "name": "createMarketItem",
      "outputs": [],
      "stateMutability": "payable",
      "type": "function"
    },
    {
      "inputs": [
        {
          "internalType": "address",
          "name": "nftContract",
          "type": "address"
        },
        {
          "internalType": "uint256",
          "name": "itemId",
          "type": "uint256"
        }
      ],
      "name": "createMarketSale",
      "outputs": [],
      "stateMutability": "payable",
      "type": "function"
    },
    {
      "inputs": [
        {
          "internalType": "uint256",
          "name": "itemId",
          "type": "uint256"
        }
      ],
      "name": "fetchMarketItem",
      "outputs": [
        {
          "components": [
            {
              "internalType": "uint256",
              "name": "itemId",
              "type": "uint256"
            },
            {
              "internalType": "address",
              "name": "nftContract",
              "type": "address"
            },
            {
              "internalType": "uint256",
              "name": "tokenId",
              "type": "uint256"
            },
            {
              "internalType": "address payable",
              "name": "seller",
              "type": "address"
            },
            {
              "internalType": "address payable",
              "name": "owner",
              "type": "address"
            },
            {
              "internalType": "uint256",
              "name": "price",
              "type": "uint256"
            }
          ],
          "internalType": "struct NFTMarket.MarketItem",
          "name": "",
          "type": "tuple"
        }
      ],
      "stateMutability": "view",
      "type": "function"
    },
    {
      "inputs": [],
      "name": "fetchMarketItems",
      "outputs": [
        {
          "components": [
            {
              "internalType": "uint256",
              "name": "itemId",
              "type": "uint256"
            },
            {
              "internalType": "address",
              "name": "nftContract",
              "type": "address"
            },
            {
              "internalType": "uint256",
              "name": "tokenId",
              "type": "uint256"
            },
            {
              "internalType": "address payable",
              "name": "seller",
              "type": "address"
            },
            {
              "internalType": "address payable",
              "name": "owner",
              "type": "address"
            },
            {
              "internalType": "uint256",
              "name": "price",
              "type": "uint256"
            }
          ],
          "internalType": "struct NFTMarket.MarketItem[]",
          "name": "",
          "type": "tuple[]"
        }
      ],
      "stateMutability": "view",
      "type": "function"
    },
    {
      "inputs": [],
      "name": "fetchMyNFTs",
      "outputs": [
        {
          "components": [
            {
              "internalType": "uint256",
              "name": "itemId",
              "type": "uint256"
            },
            {
              "internalType": "address",
              "name": "nftContract",
              "type": "address"
            },
            {
              "internalType": "uint256",
              "name": "tokenId",
              "type": "uint256"
            },
            {
              "internalType": "address payable",
              "name": "seller",
              "type": "address"
            },
            {
              "internalType": "address payable",
              "name": "owner",
              "type": "address"
            },
            {
              "internalType": "uint256",
              "name": "price",
              "type": "uint256"
            }
          ],
          "internalType": "struct NFTMarket.MarketItem[]",
          "name": "",
          "type": "tuple[]"
        }
      ],
      "stateMutability": "view",
      "type": "function"
    },
    {
      "inputs": [
        {
          "internalType": "uint256",
          "name": "marketItemId",
          "type": "uint256"
        }
      ],
      "name": "getMarketItem",
      "outputs": [
        {
          "components": [
            {
              "internalType": "uint256",
              "name": "itemId",
              "type": "uint256"
            },
            {
              "internalType": "address",
              "name": "nftContract",
              "type": "address"
            },
            {
              "internalType": "uint256",
              "name": "tokenId",
              "type": "uint256"
            },
            {
              "internalType": "address payable",
              "name": "seller",
              "type": "address"
            },
            {
              "internalType": "address payable",
              "name": "owner",
              "type": "address"
            },
            {
              "internalType": "uint256",
              "name": "price",
              "type": "uint256"
            }
          ],
          "internalType": "struct NFTMarket.MarketItem",
          "name": "",
          "type": "tuple"
        }
      ],
      "stateMutability": "view",
      "type": "function"
    }
  ],
  "bytecode": "0x608060405267016345785d8a000060045534801561001c57600080fd5b506001600055600380546001600160a01b03191633179055610c40806100436000396000f3fe6080604052600436106100655760003560e01c806358eb2df51161004357806358eb2df514610169578063c23b139e1461017e578063c7be7a49146100aa57600080fd5b80630f08efe01461006a578063202e3740146100955780632a45b250146100aa575b600080fd5b34801561007657600080fd5b5061007f610191565b60405161008c9190610abc565b60405180910390f35b3480156100a157600080fd5b5061007f610363565b3480156100b657600080fd5b5061015c6100c5366004610aa4565b6040805160c081018252600080825260208201819052918101829052606081018290526080810182905260a081019190915250600090815260056020818152604092839020835160c0810185528154815260018201546001600160a01b039081169382019390935260028201549481019490945260038101548216606085015260048101549091166080840152015460a082015290565b60405161008c9190610b50565b61017c610177366004610a72565b610573565b005b61017c61018c366004610a49565b610813565b6060600061019e60015490565b905060006101ab60025490565b6001546101b89190610bc2565b90506000808267ffffffffffffffff8111156101e457634e487b7160e01b600052604160045260246000fd5b60405190808252806020026020018201604052801561024457816020015b6040805160c08101825260008082526020808301829052928201819052606082018190526080820181905260a082015282526000199092019101816102025790505b50905060005b8481101561035a576000600581610262846001610baa565b81526020810191909152604001600020600401546001600160a01b03161415610348576000600581610295846001610baa565b81526020808201929092526040908101600090812054808252600580855291839020835160c0810185528154815260018201546001600160a01b0390811696820196909652600282015494810194909452600381015485166060850152600481015490941660808401529083015460a0830152855190935085908790811061032d57634e487b7160e01b600052603260045260246000fd5b6020908102919091010152610343600186610baa565b945050505b8061035281610bd9565b91505061024a565b50949350505050565b6060600061037060015490565b905060008060005b838110156103d3573360056000610390846001610baa565b81526020810191909152604001600020600401546001600160a01b031614156103c1576103be600184610baa565b92505b806103cb81610bd9565b915050610378565b5060008267ffffffffffffffff8111156103fd57634e487b7160e01b600052604160045260246000fd5b60405190808252806020026020018201604052801561045d57816020015b6040805160c08101825260008082526020808301829052928201819052606082018190526080820181905260a0820152825260001990920191018161041b5790505b50905060005b8481101561035a57336005600061047b846001610baa565b81526020810191909152604001600020600401546001600160a01b031614156105615760006005816104ae846001610baa565b81526020808201929092526040908101600090812054808252600580855291839020835160c0810185528154815260018201546001600160a01b0390811696820196909652600282015494810194909452600381015485166060850152600481015490941660808401529083015460a0830152855190935085908790811061054657634e487b7160e01b600052603260045260246000fd5b602090810291909101015261055c600186610baa565b945050505b8061056b81610bd9565b915050610463565b600260005414156105cb5760405162461bcd60e51b815260206004820152601f60248201527f5265656e7472616e637947756172643a207265656e7472616e742063616c6c0060448201526064015b60405180910390fd5b60026000558061061d5760405162461bcd60e51b815260206004820152601c60248201527f5072696365206d757374206265206174206c656173742031207765690000000060448201526064016105c2565b60045434146106935760405162461bcd60e51b8152602060048201526024808201527f5072696365206d75737420626520657175616c20746f206c697374696e67207060448201527f726963650000000000000000000000000000000000000000000000000000000060648201526084016105c2565b6106a1600180546001019055565b60006106ac60015490565b6040805160c0810182528281526001600160a01b0387811660208084018281528486018a8152336060870181815260006080890181815260a08a018e81528c8352600597889052918b902099518a55945160018a018054918a1673ffffffffffffffffffffffffffffffffffffffff19928316179055935160028a015590516003890180549189169185169190911790559251600480890180549290981691909316179095559051949091019390935592516323b872dd60e01b81529182015230602482015260448101869052919250906323b872dd90606401600060405180830381600087803b1580156107a057600080fd5b505af11580156107b4573d6000803e3d6000fd5b505060408051338152600060208201529081018590528592506001600160a01b038716915083907f2ad024d53a0dc50c130967f8d4941927ee087ea31394cebb2b9599d3706c9c009060600160405180910390a4505060016000555050565b600260005414156108665760405162461bcd60e51b815260206004820152601f60248201527f5265656e7472616e637947756172643a207265656e7472616e742063616c6c0060448201526064016105c2565b60026000818155828152600560208190526040909120908101549101543482146108fa576040805162461bcd60e51b81526020600482015260248101919091527f506c65617365207375626d6974207468652061736b696e67207072696365206960448201527f6e206f7264657220746f20636f6d706c6574652074686520707572636861736560648201526084016105c2565b6000838152600560205260408082206003015490516001600160a01b03909116913480156108fc02929091818181858888f19350505050158015610942573d6000803e3d6000fd5b506040516323b872dd60e01b8152306004820152336024820152604481018290526001600160a01b038516906323b872dd90606401600060405180830381600087803b15801561099157600080fd5b505af11580156109a5573d6000803e3d6000fd5b5050506000848152600560205260409020600401805473ffffffffffffffffffffffffffffffffffffffff191633179055506109e5600280546001019055565b6003546004546040516001600160a01b039092169181156108fc0291906000818181858888f19350505050158015610a21573d6000803e3d6000fd5b50506001600055505050565b80356001600160a01b0381168114610a4457600080fd5b919050565b60008060408385031215610a5b578182fd5b610a6483610a2d565b946020939093013593505050565b600080600060608486031215610a86578081fd5b610a8f84610a2d565b95602085013595506040909401359392505050565b600060208284031215610ab5578081fd5b5035919050565b6020808252825182820181905260009190848201906040850190845b81811015610b4457610b318385518051825260208101516001600160a01b03808216602085015260408301516040850152806060840151166060850152806080840151166080850152505060a081015160a08301525050565b9284019260c09290920191600101610ad8565b50909695505050505050565b60c08101610ba482848051825260208101516001600160a01b03808216602085015260408301516040850152806060840151166060850152806080840151166080850152505060a081015160a08301525050565b92915050565b60008219821115610bbd57610bbd610bf4565b500190565b600082821015610bd457610bd4610bf4565b500390565b6000600019821415610bed57610bed610bf4565b5060010190565b634e487b7160e01b600052601160045260246000fdfea264697066735822122000ac80b28b473e1aeccf5c484e6a2794ae25ce963f2b5a8ff189272aafa0f2af64736f6c63430008040033",
  "linkReferences": {},
  "deployedLinkReferences": {}
}